{
  "contractName": "SimpleMarketplace",
  "abi": [
    {
      "inputs": [
        {
          "internalType": "string",
          "name": "description",
          "type": "string"
        },
        {
          "internalType": "int256",
          "name": "price",
          "type": "int256"
        }
      ],
      "payable": false,
      "stateMutability": "nonpayable",
      "type": "constructor"
    },
    {
      "constant": true,
      "inputs": [],
      "name": "AskingPrice",
      "outputs": [
        {
          "internalType": "int256",
          "name": "",
          "type": "int256"
        }
      ],
      "payable": false,
      "stateMutability": "view",
      "type": "function"
    },
    {
      "constant": true,
      "inputs": [],
      "name": "Description",
      "outputs": [
        {
          "internalType": "string",
          "name": "",
          "type": "string"
        }
      ],
      "payable": false,
      "stateMutability": "view",
      "type": "function"
    },
    {
      "constant": true,
      "inputs": [],
      "name": "InstanceBuyer",
      "outputs": [
        {
          "internalType": "address",
          "name": "",
          "type": "address"
        }
      ],
      "payable": false,
      "stateMutability": "view",
      "type": "function"
    },
    {
      "constant": true,
      "inputs": [],
      "name": "InstanceOwner",
      "outputs": [
        {
          "internalType": "address",
          "name": "",
          "type": "address"
        }
      ],
      "payable": false,
      "stateMutability": "view",
      "type": "function"
    },
    {
      "constant": true,
      "inputs": [],
      "name": "OfferPrice",
      "outputs": [
        {
          "internalType": "int256",
          "name": "",
          "type": "int256"
        }
      ],
      "payable": false,
      "stateMutability": "view",
      "type": "function"
    },
    {
      "constant": true,
      "inputs": [],
      "name": "State",
      "outputs": [
        {
          "internalType": "enum SimpleMarketplace.StateType",
          "name": "",
          "type": "uint8"
        }
      ],
      "payable": false,
      "stateMutability": "view",
      "type": "function"
    },
    {
      "constant": false,
      "inputs": [
        {
          "internalType": "int256",
          "name": "offerPrice",
          "type": "int256"
        }
      ],
      "name": "MakeOffer",
      "outputs": [],
      "payable": false,
      "stateMutability": "nonpayable",
      "type": "function"
    },
    {
      "constant": false,
      "inputs": [],
      "name": "Reject",
      "outputs": [],
      "payable": false,
      "stateMutability": "nonpayable",
      "type": "function"
    },
    {
      "constant": false,
      "inputs": [],
      "name": "AcceptOffer",
      "outputs": [],
      "payable": false,
      "stateMutability": "nonpayable",
      "type": "function"
    }
  ],
  "bytecode": "0x608060405234801561001057600080fd5b506040516108493803806108498339818101604052604081101561003357600080fd5b810190808051604051939291908464010000000082111561005357600080fd5b8382019150602082018581111561006957600080fd5b825186600182028301116401000000008211171561008657600080fd5b8083526020830192505050908051906020019080838360005b838110156100ba57808201518184015260208101905061009f565b50505050905090810190601f1680156100e75780820380516001836020036101000a031916815260200191505b5060405260200180519060200190929190505050336000806101000a81548173ffffffffffffffffffffffffffffffffffffffff021916908373ffffffffffffffffffffffffffffffffffffffff160217905550806002819055508160019080519060200190610158929190610184565b506000600360006101000a81548160ff0219169083600281111561017857fe5b02179055505050610229565b828054600181600116156101000203166002900490600052602060002090601f016020900481019282601f106101c557805160ff19168380011785556101f3565b828001600101855582156101f3579182015b828111156101f25782518255916020019190600101906101d7565b5b5090506102009190610204565b5090565b61022691905b8082111561022257600081600090555060010161020a565b5090565b90565b610611806102386000396000f3fe608060405234801561001057600080fd5b50600436106100935760003560e01c8063b7303ba111610066578063b7303ba1146101b1578063cba59827146101fb578063d12cd94214610205578063ec69f29f1461020f578063f1b6dccd1461022d57610093565b806317200b6c1461009857806353070152146100e25780638191745f1461010057806385b44a2614610183575b600080fd5b6100a0610259565b604051808273ffffffffffffffffffffffffffffffffffffffff1673ffffffffffffffffffffffffffffffffffffffff16815260200191505060405180910390f35b6100ea61027e565b6040518082815260200191505060405180910390f35b610108610284565b6040518080602001828103825283818151815260200191508051906020019080838360005b8381101561014857808201518184015260208101905061012d565b50505050905090810190601f1680156101755780820380516001836020036101000a031916815260200191505b509250505060405180910390f35b6101af6004803603602081101561019957600080fd5b8101908080359060200190929190505050610322565b005b6101b961042b565b604051808273ffffffffffffffffffffffffffffffffffffffff1673ffffffffffffffffffffffffffffffffffffffff16815260200191505060405180910390f35b610203610451565b005b61020d610544565b005b6102176105c3565b6040518082815260200191505060405180910390f35b6102356105c9565b6040518082600281111561024557fe5b60ff16815260200191505060405180910390f35b6000809054906101000a900473ffffffffffffffffffffffffffffffffffffffff1681565b60045481565b60018054600181600116156101000203166002900480601f01602080910402602001604051908101604052809291908181526020018280546001816001161561010002031660029004801561031a5780601f106102ef5761010080835404028352916020019161031a565b820191906000526020600020905b8154815290600101906020018083116102fd57829003601f168201915b505050505081565b600081141561033057600080fd5b6000600281111561033d57fe5b600360009054906101000a900460ff16600281111561035857fe5b1461036257600080fd5b3373ffffffffffffffffffffffffffffffffffffffff166000809054906101000a900473ffffffffffffffffffffffffffffffffffffffff1673ffffffffffffffffffffffffffffffffffffffff1614156103bc57600080fd5b33600360016101000a81548173ffffffffffffffffffffffffffffffffffffffff021916908373ffffffffffffffffffffffffffffffffffffffff160217905550806004819055506001600360006101000a81548160ff0219169083600281111561042357fe5b021790555050565b600360019054906101000a900473ffffffffffffffffffffffffffffffffffffffff1681565b6001600281111561045e57fe5b600360009054906101000a900460ff16600281111561047957fe5b1461048357600080fd5b3373ffffffffffffffffffffffffffffffffffffffff166000809054906101000a900473ffffffffffffffffffffffffffffffffffffffff1673ffffffffffffffffffffffffffffffffffffffff16146104dc57600080fd5b6000600360016101000a81548173ffffffffffffffffffffffffffffffffffffffff021916908373ffffffffffffffffffffffffffffffffffffffff1602179055506000600360006101000a81548160ff0219169083600281111561053d57fe5b0217905550565b6000809054906101000a900473ffffffffffffffffffffffffffffffffffffffff1673ffffffffffffffffffffffffffffffffffffffff163373ffffffffffffffffffffffffffffffffffffffff161461059d57600080fd5b6002600360006101000a81548160ff021916908360028111156105bc57fe5b0217905550565b60025481565b600360009054906101000a900460ff168156fea265627a7a7231582040b68c8c79ade1e2ac0b0e3551153e9df70dc32ba557c02325c86e4b9ec9b56364736f6c63430005100032",
  "source": "pragma solidity >=0.4.25 <0.6.0;\r\n\r\ncontract SimpleMarketplace\r\n{\r\n    enum StateType {\r\n        ItemAvailable,\r\n        OfferPlaced,\r\n        Accepted\r\n    }\r\n\r\n    address public InstanceOwner;\r\n    string public Description;\r\n    int public AskingPrice;\r\n    StateType public State;\r\n\r\n    address public InstanceBuyer;\r\n    int public OfferPrice;\r\n\r\n    constructor(string memory description, int price) public\r\n    {\r\n        InstanceOwner = msg.sender;\r\n        AskingPrice = price;\r\n        Description = description;\r\n        State = StateType.ItemAvailable;\r\n    }\r\n\r\n    function MakeOffer(int offerPrice) public\r\n    {\r\n        if (offerPrice == 0)\r\n        {\r\n            revert();\r\n        }\r\n\r\n        if (State != StateType.ItemAvailable)\r\n        {\r\n            revert();\r\n        }\r\n\r\n        if (InstanceOwner == msg.sender)\r\n        {\r\n            revert();\r\n        }\r\n\r\n        InstanceBuyer = msg.sender;\r\n        OfferPrice = offerPrice;\r\n        State = StateType.OfferPlaced;\r\n    }\r\n\r\n    function Reject() public\r\n    {\r\n        if ( State != StateType.OfferPlaced )\r\n        {\r\n            revert();\r\n        }\r\n\r\n        if (InstanceOwner != msg.sender)\r\n        {\r\n            revert();\r\n        }\r\n\r\n        InstanceBuyer = 0x0000000000000000000000000000000000000000;\r\n        State = StateType.ItemAvailable;\r\n    }\r\n\r\n    function AcceptOffer() public\r\n    {\r\n        if ( msg.sender != InstanceOwner )\r\n        {\r\n            revert();\r\n        }\r\n\r\n        State = StateType.Accepted;\r\n    }\r\n}",
  "sourcePath": "C:/Users/Oleksandr/Desktop/habr_ex/contracts/SimpleMarketplace.sol",
  "compiler": {
    "name": "solc",
    "version": "0.5.16+commit.9c3226ce.Emscripten.clang"
  },
  "schemaVersion": "3.3.4",
  "updatedAt": "2021-04-06T20:57:17.842Z",
  "networkType": "ethereum",
  "devdoc": {
    "methods": {}
  },
  "userdoc": {
    "methods": {}
  }
}